:020000040800F2
:10000000005000203D130008A5090008AB090008B6
:10001000B1090008B7090008BD0900080000000088
:10002000000000000000000000000000C3090008FC
:10003000CF09000800000000DB090008E7090008FC
:100040008513000885130008851300088513000830
:100050008513000885130008851300088513000820
:10006000F5090008851300088513000885130008AA
:100070008513000885130008851300088513000800
:1000800085130008851300088513000885130008F0
:1000900085130008851300088513000885130008E0
:1000A00085130008851300088513000885130008D0
:1000B00085130008851300088513000885130008C0
:1000C00085130008851300088513000885130008B0
:1000D00085130008851300088513000885130008A0
:1000E0008513000885130008851300080000000030
:1000F0000000000000000000000000000000000000
:0C01000000000000000000005FF808F1A3
:10010C0010B5054C237833B9044B13B10448AFF345
:10011C0000800123237010BD0C00002000000000A3
:10012C00D013000808B5034B1BB103490348AFF3C8
:10013C00008008BD0000000010000020D013000853
:10014C00034613F8012B002AFBD1181A013870470B
:10015C0080B485B000AF78607B6803F00703FB6068
:10016C000C4BDB68BB60BA684FF6FF031340BB60F7
:10017C00FB681A02BB68134343F0BF6343F40033BC
:10018C00BB60044ABB68D36000BF1437BD4680BC5B
:10019C00704700BF00ED00E080B400AF044BDB689B
:1001AC001B0A03F007031846BD4680BC704700BF0E
:1001BC0000ED00E080B483B000AF0346FB7197F90B
:1001CC000730002B0BDBFB7903F01F02064997F974
:1001DC0007305B09012000FA02F241F8232000BF2E
:1001EC000C37BD4680BC704700E100E080B483B0A2
:1001FC0000AF03463960FB7197F90730002B0ADB1F
:10020C003B68DAB20C4997F907301201D2B20B44B1
:10021C0083F800230AE03B68DAB20849FB7903F063
:10022C000F03043B1201D2B20B441A7600BF0C37F9
:10023C00BD4680BC704700BF00E100E000ED00E06F
:10024C0080B489B000AFF860B9607A60FB6803F0E5
:10025C000703FB61FB69C3F10703042B28BF0423CD
:10026C00BB61FB690433062B02D9FB69033B00E03D
:10027C0000237B614FF0FF32BB6902FA03F3DA43D0
:10028C00BB681A407B699A404FF0FF317B6901FAD9
:10029C0003F3D9437B680B40134318462437BD4600
:1002AC0080BC704780B400AF044B1B68034A43F01A
:1002BC000103136000BFBD4680BC704700100240B4
:1002CC0080B400AF064B1B6803F00203022B0CBF7B
:1002DC0001230023DBB21846BD4680BC704700BF2B
:1002EC000010024080B483B000AF7860064B1B68EE
:1002FC0023F0F8027B68DB00034913430B6000BF5B
:10030C000C37BD4680BC70470010024080B483B0EF
:10031C0000AF7860064B5B6823F0030204497B68EE
:10032C0013434B6000BF0C37BD4680BC704700BF09
:10033C000010024080B400AF034B5B6803F00C0369
:10034C001846BD4680BC70470010024080B483B094
:10035C0000AF7860064B5B6823F0F00204497B68C1
:10036C0013434B6000BF0C37BD4680BC704700BFC9
:10037C000010024080B483B000AF7860064B5B681D
:10038C0023F4E06204497B6813434B6000BF0C37D5
:10039C00BD4680BC704700BF0010024080B483B0E3
:1003AC0000AF7860064B5B6823F4605204497B68AD
:1003BC0013434B6000BF0C37BD4680BC704700BF79
:1003CC000010024080B400AF044B1B68034A43F09A
:1003DC008073136000BFBD4680BC704700100240A4
:1003EC0080B400AF064B1B6803F00073B3F1007FC1
:1003FC000CBF01230023DBB21846BD4680BC7047FE
:10040C000010024080B483B000AF78603960084BB4
:10041C005B6823F47C127B6803F440313B680B432C
:10042C00034913434B6000BF0C37BD4680BC70477B
:10043C000010024080B485B000AF7860084BDA69D8
:10044C0007497B681343CB61054BDA697B68134022
:10045C00FB60FB6800BF1437BD4680BC704700BF13
:10046C000010024080B485B000AF7860084B9A69E8
:10047C0007497B6813438B61054B9A697B68134072
:10048C00FB60FB6800BF1437BD4680BC704700BFE3
:10049C000010024080B483B000AF7860064B1B683C
:1004AC0023F0070204497B6813430B6000BF0C3731
:1004BC00BD4680BC704700BF0020024080B400AF36
:1004CC00034B1B6803F007031846BD4680BC7047FE
:1004DC000020024080B483B000AF78607B68DB689A
:1004EC0043F400527B68DA6000BF0C37BD4680BC19
:1004FC00704780B483B000AF78607B681B6923F4CD
:10050C0090427B681A617B685B6923F02A027B68E6
:10051C005A6100BF0C37BD4680BC704780B483B0B5
:10052C0000AF78607B681B6803F08003802B0CBFE6
:10053C0001230023DBB218460C37BD4680BC704744
:10054C0080B483B000AF78600B46FB70FA787B68A0
:10055C005A6000BF0C37BD4680BC704790B488B061
:10056C0000AFF860B9607A60FB681A46BB681B0E76
:10057C0013441C462268BB687B617B6993FAA3F326
:10058C003B613B69B3FA83F3DBB29B000F2101FAA9
:10059C0003F3DB431A40BB68FB61FB6993FAA3F3DB
:1005AC00BB61BB69B3FA83F3DBB29B00796801FAD8
:1005BC0003F31343236000BF2037BD4690BC704744
:1005CC0080B483B000AF786039603B681B0A9AB284
:1005DC007B685A6100BF0C37BD4680BC704780B445
:1005EC0085B000AF786039607B68DB68FB603B6886
:1005FC001B0A9BB2BB60FA68BB6813401A04FB6809
:10060C00D943BB680B401A437B681A6100BF14378F
:10061C00BD4680BC7047000080B400AF074B5B68E0
:10062C00064A23F0E0635360044B5B68034A43F0D3
:10063C000073536000BFBD4680BC70470000014092
:10064C0080B485B000AF78603960134A3B68DBB288
:10065C00023352F823203B681B0CDB4302EA0301F4
:10066C003B681B0CFB60FB6893FAA3F3BB60BB6895
:10067C00B3FA83F3DBB21A467B6803FA02F206483C
:10068C003B68DBB20A43023340F8232000BF143727
:10069C00BD4680BC704700BF0000014080B582B0F1
:1006AC0000AF0120FFF7DEFE4FF08050FFF7C2FED7
:1006BC000320FFF74DFDFFF7AFFF00F029F800F026
:1006CC00C1F800F065F80D4B1B78DBB2002B02D0A3
:1006DC000B4B1B6801E00B4B1B687B607868FFF7CA
:1006EC002FFD03461946786800F008F906490748BB
:1006FC00FFF775FF642000F0E9FDE4E72800002017
:10070C000400002000000020200020040010014004
:10071C0080B500AF0220FFF7BDFE00BFFFF7CEFE95
:10072C000346022BFAD11020FFF7DCFDFFF7BAFDD0
:10073C0000BFFFF7C5FD0346012BFAD14FF4601142
:10074C000020FFF75FFEFFF73DFE00BFFFF748FEFE
:10075C000346012BFAD10020FFF7F8FD4FF480601F
:10076C00FFF708FE0020FFF719FE0220FFF7CEFD71
:10077C0000BFFFF7DFFD0346082BFAD1034800F05A
:10078C0097FD024800F0C6FD00BF80BD0090D0036D
:10079C0080B58CB000AF07F1140300221A605A60C8
:1007AC009A60DA601A615A619A613B4600221A60BB
:1007BC005A609A60DA601A614FF48040FFF752FE7B
:1007CC000420FFF74FFE1B4B3B6009237B60032388
:1007DC00BB600023FB603B461946174800F0E3FA68
:1007EC00164B3B6004237B603B461946124800F0D5
:1007FC00DAFA4FF416637B614FF48053BB6100232C
:10080C00FB614FF480633B6208237B620023BB6275
:10081C000023FB6207F114031946094800F0CEFCD3
:10082C000748FFF766FE0648FFF754FE00BF303757
:10083C00BD4680BD0200020400080140040004040F
:10084C000038014080B588B000AF07F118030022D2
:10085C001A605A603B1D00221A605A609A60DA6076
:10086C001A611020FFF7FEFD0820FFF7FBFD0420A6
:10087C00FFF7F8FD1E491F48FFF7A2FE1C4B7B60DB
:10088C000123BB600123FB6000233B613B1D194628
:10089C00184800F088FA4FF070610120FFF7D0FE85
:1008AC000423BB6101233B7700237B770123BB77B8
:1008BC0007F11803184600F03FF9042240F20441F6
:1008CC000D48FFF74BFEFFF767FC034600220121A2
:1008DC001846FFF7B5FC034619460820FFF786FCBF
:1008EC000820FFF767FC00BF2037BD4680BD00BF66
:1008FC002000200400100140000C014080B584B0A1
:10090C0000AF786039600023FB607B68002B14D14A
:10091C004FF0FF3316E07A68FB6813441B781946D6
:10092C000A48FFF70DFE00BF0848FFF7F7FD034626
:10093C00002BF9D0FB680133FB60FA683B689A42E4
:10094C00E9D3002318461037BD4680BD003801405E
:10095C0080B483B000AF7860074B5A697B68134052
:10096C007A689A420CBF01230023DBB218460C377D
:10097C00BD4680BC704700BF0004014080B483B00A
:10098C0000AF7860034A7B68536100BF0C37BD46EB
:10099C0080BC70470004014080B400AFFEE780B417
:1009AC0000AFFEE780B400AFFEE780B400AFFEE717
:1009BC0080B400AFFEE780B400AF00BFBD4680BC82
:1009CC00704780B400AF00BFBD4680BC704780B498
:1009DC0000AF00BFBD4680BC704780B400AF00BF05
:1009EC00BD4680BC7047000080B500AF0420FFF707
:1009FC00AFFF0346002B05D00420FFF7BFFF024BCF
:100A0C0001221A7000BF80BD2800002080B400AF06
:100A1C0000BFBD4680BC704780B483B000AF786027
:100A2C00054B1A6804497B6813430B6000BF0C37F5
:100A3C00BD4680BC704700BF0004014080B483B049
:100A4C0000AF7860054B1A687B68DB4303491340A1
:100A5C000B6000BF0C37BD4680BC704700040140E2
:100A6C0080B483B000AF7860054B5A6804497B684A
:100A7C0013434B6000BF0C37BD4680BC704700BFB2
:100A8C000004014080B483B000AF7860054B5A6815
:100A9C007B68DB43034913404B6000BF0C37BD46FA
:100AAC0080BC70470004014080B483B000AF786014
:100ABC00054B9A6804497B6813438B6000BF0C3765
:100ACC00BD4680BC704700BF0004014080B483B0B9
:100ADC0000AF7860054B9A687B68DB430349134091
:100AEC008B6000BF0C37BD4680BC704700040140D2
:100AFC0080B483B000AF7860054BDA6804497B683A
:100B0C001343CB6000BF0C37BD4680BC704700BFA1
:100B1C000004014080B483B000AF7860054BDA6804
:100B2C007B68DB4303491340CB6000BF0C37BD46E9
:100B3C0080BC70470004014080B584B000AF786081
:100B4C000023FB737B681B79002B65D07B681B68CB
:100B5C00002B6BD07B685B79022B1CD0022B25DC25
:100B6C00002B02D0012B0BD020E07B681B681846B1
:100B7C00FFF788FF7B681B681846FFF74DFF18E0EE
:100B8C007B681B681846FFF759FF7B681B68184683
:100B9C00FFF766FF0DE07B681B681846FFF73CFF0C
:100BAC007B681B681846FFF75BFF02E00123FB73B1
:100BBC0000BF7B689B79002B38D07B689B79032B1B
:100BCC001CD0032B25DC012B02D0022B0BD020E0F8
:100BDC007B681B681846FFF79DFF7B681B681846EF
:100BEC00FFF762FF22E07B681B681846FFF76EFF79
:100BFC007B681B681846FFF77BFF17E07B681B6858
:100C0C001846FFF751FF7B681B681846FFF770FF0B
:100C1C000CE00123FB7309E07B681B681846FFF7A7
:100C2C000DFF7B681B681846FFF72CFFFB7B1846F3
:100C3C001037BD4680BD90B488B000AFF860B96085
:100C4C007A60FB681A46BB681B0E13441C4622686C
:100C5C00BB687B617B6993FAA3F33B613B69B3FA95
:100C6C0083F3DBB29B000F2101FA03F3DB431A4041
:100C7C00BB68FB61FB6993FAA3F3BB61BB69B3FA75
:100C8C0083F3DBB29B00796801FA03F3134323600F
:100C9C0000BF2037BD4690BC704790B488B000AF01
:100CAC00F860B9607A60FB681A46BB681B0E134487
:100CBC001C462268BB687B617B6993FAA3F33B619A
:100CCC003B69B3FA83F3DBB29B00032101FA03F314
:100CDC00DB431A40BB68FB61FB6993FAA3F3BB616E
:100CEC00BB69B3FA83F3DBB29B00796801FA03F3B7
:100CFC001343236000BF2037BD4690BC704790B4AF
:100D0C0088B000AFF860B9607A60FB681A46BB68BF
:100D1C001B0E13441C462268BB687B617B6993FAEB
:100D2C00A3F33B613B69B3FA83F3DBB29B00042171
:100D3C0001FA03F3DB431A40BB68FB61FB6993FACE
:100D4C00A3F3BB61BB69B3FA83F3DBB29B00796895
:100D5C0001FA03F31343236000BF2037BD4690BC58
:100D6C00704780B487B000AFF860B9607A60FB68F8
:100D7C00DA68BB681B0ADB431A40BB681B0A7B6141
:100D8C007B6993FAA3F33B613B69B3FA83F3DBB260
:100D9C0019467B688B401A43FB68DA6000BF1C372E
:100DAC00BD4680BC704780B588B000AF78603960B4
:100DBC003B681B681B021B0C7B617B693B613B69BD
:100DCC0093FAA3F3FB60FB68B3FA83F3DBB2FB612A
:100DDC0040E00122FB699A407B691340002B36D01E
:100DEC00FB69072B06D840F20112FB6902FA03F3E8
:100DFC00BB6108E0FB69083B4FF0011202FA03F3F8
:100E0C0043F08063BB613B681B691A46B96978681B
:100E1C00FFF7A7FF3B685B681A46B9697868FFF76C
:100E2C000AFF3B685B68012B03D03B685B68092BAE
:100E3C000DD13B689B681A46B9697868FFF72DFF9E
:100E4C003B68DB681A46B9697868FFF758FFFB699D
:100E5C000133FB617A69FB6922FA03F3002BB8D1E9
:100E6C00002318462037BD4680BD000080B400AF7B
:100E7C00034B5B6803F00C031846BD4680BC7047FF
:100E8C000010024080B400AF034B5B6803F0F0032A
:100E9C001846BD4680BC70470010024080B400AFBD
:100EAC00034B5B6803F4E0631846BD4680BC704797
:100EBC000010024080B400AF034B5B6803F4605336
:100ECC001846BD4680BC70470010024080B400AF8D
:100EDC00034B5B6803F480331846BD4680BC7047F7
:100EEC000010024080B400AF034B5B6803F4701336
:100EFC001846BD4680BC70470010024080B400AF5D
:100F0C00044B5B685B0C03F001031846BD4680BCC8
:100F1C00704700BF0010024080B582B000AF78600F
:100F2C0000F020F802467B681A607B681B68184644
:100F3C0000F03EF802467B685A607B685B68184696
:100F4C0000F04CF802467B689A607B685B68184638
:100F5C0000F058F802467B68DA6000BF0837BD46DF
:100F6C0080BD000080B582B000AF00237B60FFF72E
:100F7C007DFF0346082B0CD0082B0ED8002B02D07B
:100F8C00042B03D009E0094B7B6009E0074B7B6025
:100F9C0006E000F04BF8786002E0044B7B6000BF89
:100FAC007B6818460837BD4680BD00BF00127A002A
:100FBC0080B582B000AF7860FFF764FF03461B0971
:100FCC0003F00F03044AD35C1A467B68D3401846DF
:100FDC000837BD4680BD00BF1414000880B582B030
:100FEC0000AF7860FFF75AFF03461B0A044AD35C34
:100FFC001A467B68D34018460837BD4680BD00BFF3
:10100C002414000880B582B000AF7860FFF752FF5F
:10101C000346DB0A044AD35C1A467B68D340184665
:10102C000837BD4680BD00BF2414000880B582B0CF
:10103C0000AF00237B6000233B60FFF747FF386065
:10104C003B68002B04D03B68B3F5803F03D00BE02A
:10105C000D4B7B600BE0FFF751FF034601330B4A4E
:10106C00B2FBF3F37B6002E0074B7B6000BFFFF742
:10107C0039FF03469B0C02337A6802FB03F31846D4
:10108C000837BD4680BD00BF00093D0000127A0044
:10109C0080B483B000AF78607B68DB6803F40053E6
:1010AC00B3F5005F0CBF01230023DBB218460C37ED
:1010BC00BD4680BC704780B483B000AF78603960A7
:1010CC007B681B6923F440523B681A437B681A61A6
:1010DC0000BF0C37BD4680BC704780B483B000AFF6
:1010EC00786039607B685B6923F440723B681A4313
:1010FC007B685A6100BF0C37BD4680BC704700004E
:10110C0080B485B000AFF860B9607A60BA681346F5
:10111C009B0013449A001A447B689B00B2FBF3F3C8
:10112C00254AA2FB03235B099BB21B0199B2BA6847
:10113C0013469B0013449A001A447B689B00B2FB35
:10114C00F3F21D4BA3FB02035B09642000FB03F3CA
:10115C00D31A1B013233184AA2FB03235B099BB23F
:10116C0003F0F0039BB20B4499B2BA6813469B0090
:10117C0013449A001A447B689B00B2FBF3F20E4BAB
:10118C00A3FB02035B09642000FB03F3D31A1B01CE
:10119C003233094AA2FB03235B099BB203F00F0312
:1011AC009BB20B449BB21A46FB689A6000BF143783
:1011BC00BD4680BC704700BF1F85EB5180B588B021
:1011CC0000AF786039600123FB770023BB6178683E
:1011DC00FFF75EFF0346002B45D17B68DB6823F4E9
:1011EC00B05323F00C033A6851683A68D268114343
:1011FC003A6812690A431A437B68DA603B689B6859
:10120C0019467868FFF757FF3B685B6919467868A1
:10121C00FFF763FF07F108031846FFF77DFE7B68B5
:10122C00134A934202D17B69BB610CE07B68114A83
:10123C00934202D13B69BB6105E07B680E4A934245
:10124C0001D13B69BB61BB69002B0CD03B681B68AF
:10125C00002B08D00023FB773B681B681A46B96942
:10126C007868FFF74DFFFB7F18462037BD4680BDE1
:10127C0000380140004400400048004080B483B076
:10128C0000AF786039607A683B68B2FBF3F3074AC9
:10129C00013B5360054B00229A60044B05221A60F7
:1012AC0000BF0C37BD4680BC704700BF10E000E0AB
:1012BC0080B582B000AF78604FF47A717868FFF730
:1012CC00DDFF00BF0837BD4680BD000080B485B08F
:1012DC0000AF78600E4B1B68FB60FB687B68B3F15A
:1012EC00FF3F0CD07B6801337B6008E0084B1B6828
:1012FC0003F48033002B02D07B68013B7B607B685E
:10130C00002BF3D100BF00BF1437BD4680BC704723
:10131C0010E000E080B483B000AF7860034A7B68D3
:10132C00136000BF0C37BD4680BC7047080000201E
:10133C00002103E00B4B5B58435004310A480B4B24
:10134C0042189A42F6D30A4A02E0002342F8043BC0
:10135C00084B9A42F9D3FFF759FB00F00FF8FFF74F
:10136C009DF9704734140008000000200C00002088
:10137C000C0000202C000020FEE7000070B50026B9
:10138C000C4D0D4C641BA410A64209D100F01AF8A8
:10139C0000260A4D0A4C641BA410A64205D170BD50
:1013AC0055F8043B98470136EEE755F8043B98474F
:1013BC000136F2E72C1400082C1400082C14000839
:1013CC0030140008F8B500BFF8BC08BC9E46704746
:0C13DC00F8B500BFF8BC08BC9E46704786
:1013E800081C3044586C80004177616974696E67E5
:1013F80020696E7075742E2E2E0A0000763D645199
:101408007734773957675863510A000000000000A5
:10141800000000000102030406070809000000009C
:0414280001020304B6
:04142C003101000882
:041430000D010008A2
:0C143400F0130008041400080024F40069
:040000050800133D9F
:00000001FF
