:100000000C945C000C9479000C9479000C947900A9
:100010000C9479000C9479000C9479000C9479007C
:100020000C9479000C9479000C9479000C9479006C
:100030000C9479000C9487010C9479000C9479004D
:100040000C943D010C9479000C9479000C94790087
:100050000C9479000C9479000C9479000C9479003C
:100060000C9479000C947900000000080002010053
:100070000003040700000000000000000000000072
:10008000250028002B0000000000240027002A0083
:10009000040404040404040402020202020203032E
:1000A0000303030301020408102040800102040836
:1000B000102001020408102011241FBECFEFD8E049
:1000C000DEBFCDBF11E0A0E0B1E0E8E9F5E002C09D
:1000D00005900D92AC31B107D9F721E0ACE1B1E068
:1000E00001C01D92AA32B207E1F70E94F4010C94FC
:1000F000CA020C94000090E0FC01EC55FF4F2491E3
:1001000080579F4FFC018491882399F090E0880FDD
:10011000991FFC01EA57FF4FA591B491FC01E458E7
:10012000FF4F859194918FB7F894EC91E22BEC936B
:100130008FBF089590E0FC01E859FF4F2491FC0126
:10014000EC55FF4F3491FC01E057FF4FE491EE2353
:10015000C9F0222339F0233001F1A8F4213019F13C
:10016000223029F1F0E0EE0FFF1FE458FF4FA59178
:10017000B4918FB7F894EC91611126C030953E236D
:100180003C938FBF08952730A9F02830C9F0243060
:1001900049F7809180008F7D03C0809180008F7728
:1001A00080938000DFCF84B58F7784BDDBCF84B5AB
:1001B0008F7DFBCF8091B0008F778093B000D2CF3E
:1001C0008091B0008F7DF9CF3E2BDACF3FB7F89406
:1001D0008091220190912301A0912401B0912501E9
:1001E00026B5A89B05C02F3F19F00196A11DB11D92
:1001F0003FBFBA2FA92F982F8827BC01CD01620FCE
:10020000711D811D911D42E0660F771F881F991F88
:100210004A95D1F708958F929F92AF92BF92CF9255
:10022000DF92EF92FF924B015C010E94E6006B01AE
:100230007C010E94E6006C197D098E099F09683EC9
:10024000734081059105A8F321E0821A9108A10865
:10025000B10888EEC80E83E0D81EE11CF11C8114A1
:100260009104A104B10429F7FF90EF90DF90CF90A3
:10027000BF90AF909F908F9008951F920F920FB6EE
:100280000F9211242F933F938F939F93AF93BF931C
:1002900080911E0190911F01A0912001B091210138
:1002A00030911D0123E0230F2D3758F50196A11D34
:1002B000B11D20931D0180931E0190931F01A093F7
:1002C0002001B09321018091220190912301A091FE
:1002D0002401B09125010196A11DB11D8093220139
:1002E00090932301A0932401B0932501BF91AF9176
:1002F0009F918F913F912F910F900FBE0F901F9064
:10030000189526E8230F0296A11DB11DD2CF1F928A
:100310000F920FB60F921124EF92FF920F931F933B
:100320002F933F934F935F936F937F938F939F93FD
:10033000AF93BF93CF93DF93EF93FF93E0911C01B3
:10034000F0E0E85EFE4F61E080810E949A008091BB
:100350001C018F5F80931C0180911C01843010F080
:1003600010921C0100E111E0D0E0C0E080E8E82E2E
:10037000F12CE0911C01F0E0EA5DFE4FE081F0E03D
:10038000E050FF4FC7010C2E02C0959587950A9447
:10039000E2F760816823F80181918F010E949A0041
:1003A0002196C830D10529F7E0911C01F0E0E85E04
:1003B000FE4F60E080810E949A00FF91EF91DF91F3
:1003C000CF91BF91AF919F918F917F916F915F91ED
:1003D0004F913F912F911F910F91FF90EF900F90B0
:1003E0000FBE0F901F901895789484B5826084BDDD
:1003F00084B5816084BD85B5826085BD85B5816029
:1004000085BD80916E00816080936E0010928100A6
:100410008091810082608093810080918100816061
:100420008093810080918000816080938000809122
:10043000B10084608093B1008091B00081608093AE
:10044000B00080917A00846080937A0080917A0075
:10045000826080937A0080917A00816080937A0034
:1004600080917A00806880937A001092C100C8E180
:10047000D1E04CE1E42E41E0F42E1991812F0E944D
:100480007B0061E0812F0E949A00EC16FD06A9F71F
:10049000C0E1D1E038E1E32E31E0F32E1991812F54
:1004A0000E947B0061E0812F0E949A00EC16FD06FD
:1004B000A9F7F894109281001092850010928400A0
:1004C00082E0809380008091810088618093810028
:1004D00081E080936F008FEC97E09093870080938A
:1004E00086008091810082608093810078940AE088
:1004F00010E084E6E82EF12C98EEC92E93E0D92E78
:1005000020E0A22E20E0B22ECFE0D7E2CE01B8014B
:100510000E94B60280932901CB01B8010E94B60265
:1005200080932801CE01B7010E94B602CB01B80129
:100530000E94B60280932701CE01B6010E94B60246
:100540006093260164E670E080E090E00E940B0179
:100550002197E1F668EB7BE080E090E00E940B01E0
:10056000A114B10489F20E940000CECFAA1BBB1BCC
:1005700051E107C0AA1FBB1FA617B70710F0A61BA3
:10058000B70B881F991F5A95A9F780959095BC01C4
:08059000CD010895F894FFCF9E
:10059800039F250D9949411F010911C163856171A7
:0C05A8000C0D0708090B0A0605040302ED
:00000001FF
